{
  "contractName": "ThekkanCoin",
  "abi": [
    {
      "inputs": [],
      "stateMutability": "nonpayable",
      "type": "constructor"
    },
    {
      "inputs": [
        {
          "internalType": "address",
          "name": "sender",
          "type": "address"
        },
        {
          "internalType": "uint256",
          "name": "tokenId",
          "type": "uint256"
        },
        {
          "internalType": "address",
          "name": "owner",
          "type": "address"
        }
      ],
      "name": "ERC721IncorrectOwner",
      "type": "error"
    },
    {
      "inputs": [
        {
          "internalType": "address",
          "name": "operator",
          "type": "address"
        },
        {
          "internalType": "uint256",
          "name": "tokenId",
          "type": "uint256"
        }
      ],
      "name": "ERC721InsufficientApproval",
      "type": "error"
    },
    {
      "inputs": [
        {
          "internalType": "address",
          "name": "approver",
          "type": "address"
        }
      ],
      "name": "ERC721InvalidApprover",
      "type": "error"
    },
    {
      "inputs": [
        {
          "internalType": "address",
          "name": "operator",
          "type": "address"
        }
      ],
      "name": "ERC721InvalidOperator",
      "type": "error"
    },
    {
      "inputs": [
        {
          "internalType": "address",
          "name": "owner",
          "type": "address"
        }
      ],
      "name": "ERC721InvalidOwner",
      "type": "error"
    },
    {
      "inputs": [
        {
          "internalType": "address",
          "name": "receiver",
          "type": "address"
        }
      ],
      "name": "ERC721InvalidReceiver",
      "type": "error"
    },
    {
      "inputs": [
        {
          "internalType": "address",
          "name": "sender",
          "type": "address"
        }
      ],
      "name": "ERC721InvalidSender",
      "type": "error"
    },
    {
      "inputs": [
        {
          "internalType": "uint256",
          "name": "tokenId",
          "type": "uint256"
        }
      ],
      "name": "ERC721NonexistentToken",
      "type": "error"
    },
    {
      "inputs": [
        {
          "internalType": "address",
          "name": "owner",
          "type": "address"
        }
      ],
      "name": "OwnableInvalidOwner",
      "type": "error"
    },
    {
      "inputs": [
        {
          "internalType": "address",
          "name": "account",
          "type": "address"
        }
      ],
      "name": "OwnableUnauthorizedAccount",
      "type": "error"
    },
    {
      "anonymous": false,
      "inputs": [
        {
          "indexed": true,
          "internalType": "address",
          "name": "owner",
          "type": "address"
        },
        {
          "indexed": true,
          "internalType": "address",
          "name": "approved",
          "type": "address"
        },
        {
          "indexed": true,
          "internalType": "uint256",
          "name": "tokenId",
          "type": "uint256"
        }
      ],
      "name": "Approval",
      "type": "event"
    },
    {
      "anonymous": false,
      "inputs": [
        {
          "indexed": true,
          "internalType": "address",
          "name": "owner",
          "type": "address"
        },
        {
          "indexed": true,
          "internalType": "address",
          "name": "operator",
          "type": "address"
        },
        {
          "indexed": false,
          "internalType": "bool",
          "name": "approved",
          "type": "bool"
        }
      ],
      "name": "ApprovalForAll",
      "type": "event"
    },
    {
      "anonymous": false,
      "inputs": [
        {
          "indexed": true,
          "internalType": "address",
          "name": "previousOwner",
          "type": "address"
        },
        {
          "indexed": true,
          "internalType": "address",
          "name": "newOwner",
          "type": "address"
        }
      ],
      "name": "OwnershipTransferred",
      "type": "event"
    },
    {
      "anonymous": false,
      "inputs": [
        {
          "indexed": true,
          "internalType": "address",
          "name": "from",
          "type": "address"
        },
        {
          "indexed": true,
          "internalType": "address",
          "name": "to",
          "type": "address"
        },
        {
          "indexed": true,
          "internalType": "uint256",
          "name": "tokenId",
          "type": "uint256"
        }
      ],
      "name": "Transfer",
      "type": "event"
    },
    {
      "inputs": [
        {
          "internalType": "address",
          "name": "to",
          "type": "address"
        },
        {
          "internalType": "uint256",
          "name": "tokenId",
          "type": "uint256"
        }
      ],
      "name": "approve",
      "outputs": [],
      "stateMutability": "nonpayable",
      "type": "function"
    },
    {
      "inputs": [
        {
          "internalType": "address",
          "name": "owner",
          "type": "address"
        }
      ],
      "name": "balanceOf",
      "outputs": [
        {
          "internalType": "uint256",
          "name": "",
          "type": "uint256"
        }
      ],
      "stateMutability": "view",
      "type": "function",
      "constant": true
    },
    {
      "inputs": [
        {
          "internalType": "uint256",
          "name": "tokenId",
          "type": "uint256"
        }
      ],
      "name": "getApproved",
      "outputs": [
        {
          "internalType": "address",
          "name": "",
          "type": "address"
        }
      ],
      "stateMutability": "view",
      "type": "function",
      "constant": true
    },
    {
      "inputs": [
        {
          "internalType": "address",
          "name": "owner",
          "type": "address"
        },
        {
          "internalType": "address",
          "name": "operator",
          "type": "address"
        }
      ],
      "name": "isApprovedForAll",
      "outputs": [
        {
          "internalType": "bool",
          "name": "",
          "type": "bool"
        }
      ],
      "stateMutability": "view",
      "type": "function",
      "constant": true
    },
    {
      "inputs": [],
      "name": "name",
      "outputs": [
        {
          "internalType": "string",
          "name": "",
          "type": "string"
        }
      ],
      "stateMutability": "view",
      "type": "function",
      "constant": true
    },
    {
      "inputs": [],
      "name": "owner",
      "outputs": [
        {
          "internalType": "address",
          "name": "",
          "type": "address"
        }
      ],
      "stateMutability": "view",
      "type": "function",
      "constant": true
    },
    {
      "inputs": [
        {
          "internalType": "uint256",
          "name": "tokenId",
          "type": "uint256"
        }
      ],
      "name": "ownerOf",
      "outputs": [
        {
          "internalType": "address",
          "name": "",
          "type": "address"
        }
      ],
      "stateMutability": "view",
      "type": "function",
      "constant": true
    },
    {
      "inputs": [],
      "name": "renounceOwnership",
      "outputs": [],
      "stateMutability": "nonpayable",
      "type": "function"
    },
    {
      "inputs": [
        {
          "internalType": "address",
          "name": "from",
          "type": "address"
        },
        {
          "internalType": "address",
          "name": "to",
          "type": "address"
        },
        {
          "internalType": "uint256",
          "name": "tokenId",
          "type": "uint256"
        }
      ],
      "name": "safeTransferFrom",
      "outputs": [],
      "stateMutability": "nonpayable",
      "type": "function"
    },
    {
      "inputs": [
        {
          "internalType": "address",
          "name": "from",
          "type": "address"
        },
        {
          "internalType": "address",
          "name": "to",
          "type": "address"
        },
        {
          "internalType": "uint256",
          "name": "tokenId",
          "type": "uint256"
        },
        {
          "internalType": "bytes",
          "name": "data",
          "type": "bytes"
        }
      ],
      "name": "safeTransferFrom",
      "outputs": [],
      "stateMutability": "nonpayable",
      "type": "function"
    },
    {
      "inputs": [
        {
          "internalType": "address",
          "name": "operator",
          "type": "address"
        },
        {
          "internalType": "bool",
          "name": "approved",
          "type": "bool"
        }
      ],
      "name": "setApprovalForAll",
      "outputs": [],
      "stateMutability": "nonpayable",
      "type": "function"
    },
    {
      "inputs": [
        {
          "internalType": "bytes4",
          "name": "interfaceId",
          "type": "bytes4"
        }
      ],
      "name": "supportsInterface",
      "outputs": [
        {
          "internalType": "bool",
          "name": "",
          "type": "bool"
        }
      ],
      "stateMutability": "view",
      "type": "function",
      "constant": true
    },
    {
      "inputs": [],
      "name": "symbol",
      "outputs": [
        {
          "internalType": "string",
          "name": "",
          "type": "string"
        }
      ],
      "stateMutability": "view",
      "type": "function",
      "constant": true
    },
    {
      "inputs": [
        {
          "internalType": "address",
          "name": "from",
          "type": "address"
        },
        {
          "internalType": "address",
          "name": "to",
          "type": "address"
        },
        {
          "internalType": "uint256",
          "name": "tokenId",
          "type": "uint256"
        }
      ],
      "name": "transferFrom",
      "outputs": [],
      "stateMutability": "nonpayable",
      "type": "function"
    },
    {
      "inputs": [
        {
          "internalType": "address",
          "name": "newOwner",
          "type": "address"
        }
      ],
      "name": "transferOwnership",
      "outputs": [],
      "stateMutability": "nonpayable",
      "type": "function"
    },
    {
      "inputs": [],
      "name": "buyToken",
      "outputs": [],
      "stateMutability": "payable",
      "type": "function",
      "payable": true
    },
    {
      "inputs": [],
      "name": "currentTokenId",
      "outputs": [
        {
          "internalType": "uint256",
          "name": "",
          "type": "uint256"
        }
      ],
      "stateMutability": "view",
      "type": "function",
      "constant": true
    },
    {
      "inputs": [
        {
          "internalType": "address",
          "name": "to",
          "type": "address"
        }
      ],
      "name": "safeMint",
      "outputs": [],
      "stateMutability": "nonpayable",
      "type": "function"
    },
    {
      "inputs": [
        {
          "internalType": "uint256",
          "name": "tokenId",
          "type": "uint256"
        }
      ],
      "name": "tokenURI",
      "outputs": [
        {
          "internalType": "string",
          "name": "",
          "type": "string"
        }
      ],
      "stateMutability": "pure",
      "type": "function",
      "constant": true
    }
  ],
  "bytecode": "0x608060405234801562000010575f80fd5b50336040518060400160405280600b81526020017f5468656b6b616e436f696e0000000000000000000000000000000000000000008152506040518060400160405280600381526020017f544b430000000000000000000000000000000000000000000000000000000000815250815f90816200008e919062000455565b508060019081620000a0919062000455565b5050505f73ffffffffffffffffffffffffffffffffffffffff168173ffffffffffffffffffffffffffffffffffffffff160362000116575f6040517f1e4fbdf70000000000000000000000000000000000000000000000000000000081526004016200010d91906200057c565b60405180910390fd5b62000127816200012e60201b60201c565b5062000597565b5f60065f9054906101000a900473ffffffffffffffffffffffffffffffffffffffff1690508160065f6101000a81548173ffffffffffffffffffffffffffffffffffffffff021916908373ffffffffffffffffffffffffffffffffffffffff1602179055508173ffffffffffffffffffffffffffffffffffffffff168173ffffffffffffffffffffffffffffffffffffffff167f8be0079c531659141344cd1fd0a4f28419497f9722a3daafe3b4186f6b6457e060405160405180910390a35050565b5f81519050919050565b7f4e487b71000000000000000000000000000000000000000000000000000000005f52604160045260245ffd5b7f4e487b71000000000000000000000000000000000000000000000000000000005f52602260045260245ffd5b5f60028204905060018216806200026d57607f821691505b60208210810362000283576200028262000228565b5b50919050565b5f819050815f5260205f209050919050565b5f6020601f8301049050919050565b5f82821b905092915050565b5f60088302620002e77fffffffffffffffffffffffffffffffffffffffffffffffffffffffffffffffff82620002aa565b620002f38683620002aa565b95508019841693508086168417925050509392505050565b5f819050919050565b5f819050919050565b5f6200033d6200033762000331846200030b565b62000314565b6200030b565b9050919050565b5f819050919050565b62000358836200031d565b62000370620003678262000344565b848454620002b6565b825550505050565b5f90565b6200038662000378565b620003938184846200034d565b505050565b5b81811015620003ba57620003ae5f826200037c565b60018101905062000399565b5050565b601f8211156200040957620003d38162000289565b620003de846200029b565b81016020851015620003ee578190505b62000406620003fd856200029b565b83018262000398565b50505b505050565b5f82821c905092915050565b5f6200042b5f19846008026200040e565b1980831691505092915050565b5f6200044583836200041a565b9150826002028217905092915050565b6200046082620001f1565b67ffffffffffffffff8111156200047c576200047b620001fb565b5b62000488825462000255565b62000495828285620003be565b5f60209050601f831160018114620004cb575f8415620004b6578287015190505b620004c2858262000438565b86555062000531565b601f198416620004db8662000289565b5f5b828110156200050457848901518255600182019150602085019450602081019050620004dd565b8683101562000524578489015162000520601f8916826200041a565b8355505b6001600288020188555050505b505050505050565b5f73ffffffffffffffffffffffffffffffffffffffff82169050919050565b5f620005648262000539565b9050919050565b620005768162000558565b82525050565b5f602082019050620005915f8301846200056b565b92915050565b61249080620005a55f395ff3fe608060405260043610610112575f3560e01c806370a082311161009f578063a482171911610063578063a48217191461038c578063b88d4fde14610396578063c87b56dd146103be578063e985e9c5146103fa578063f2fde38b1461043657610112565b806370a08231146102be578063715018a6146102fa5780638da5cb5b1461031057806395d89b411461033a578063a22cb4651461036457610112565b8063095ea7b3116100e6578063095ea7b3146101e257806323b872dd1461020a57806340d097c31461023257806342842e0e1461025a5780636352211e1461028257610112565b80629a9b7b1461011657806301ffc9a71461014057806306fdde031461017c578063081812fc146101a6575b5f80fd5b348015610121575f80fd5b5061012a61045e565b6040516101379190611aa6565b60405180910390f35b34801561014b575f80fd5b5061016660048036038101906101619190611b25565b610467565b6040516101739190611b6a565b60405180910390f35b348015610187575f80fd5b50610190610548565b60405161019d9190611c0d565b60405180910390f35b3480156101b1575f80fd5b506101cc60048036038101906101c79190611c57565b6105d7565b6040516101d99190611cc1565b60405180910390f35b3480156101ed575f80fd5b5061020860048036038101906102039190611d04565b6105f2565b005b348015610215575f80fd5b50610230600480360381019061022b9190611d42565b610608565b005b34801561023d575f80fd5b5061025860048036038101906102539190611d92565b610707565b005b348015610265575f80fd5b50610280600480360381019061027b9190611d42565b610735565b005b34801561028d575f80fd5b506102a860048036038101906102a39190611c57565b610754565b6040516102b59190611cc1565b60405180910390f35b3480156102c9575f80fd5b506102e460048036038101906102df9190611d92565b610765565b6040516102f19190611aa6565b60405180910390f35b348015610305575f80fd5b5061030e61081b565b005b34801561031b575f80fd5b5061032461082e565b6040516103319190611cc1565b60405180910390f35b348015610345575f80fd5b5061034e610856565b60405161035b9190611c0d565b60405180910390f35b34801561036f575f80fd5b5061038a60048036038101906103859190611de7565b6108e6565b005b6103946108fc565b005b3480156103a1575f80fd5b506103bc60048036038101906103b79190611f51565b6109bb565b005b3480156103c9575f80fd5b506103e460048036038101906103df9190611c57565b6109e0565b6040516103f19190611c0d565b60405180910390f35b348015610405575f80fd5b50610420600480360381019061041b9190611fd1565b610a26565b60405161042d9190611b6a565b60405180910390f35b348015610441575f80fd5b5061045c60048036038101906104579190611d92565b610ab4565b005b5f600754905090565b5f7f80ac58cd000000000000000000000000000000000000000000000000000000007bffffffffffffffffffffffffffffffffffffffffffffffffffffffff1916827bffffffffffffffffffffffffffffffffffffffffffffffffffffffff1916148061053157507f5b5e139f000000000000000000000000000000000000000000000000000000007bffffffffffffffffffffffffffffffffffffffffffffffffffffffff1916827bffffffffffffffffffffffffffffffffffffffffffffffffffffffff1916145b80610541575061054082610b38565b5b9050919050565b60605f80546105569061203c565b80601f01602080910402602001604051908101604052809291908181526020018280546105829061203c565b80156105cd5780601f106105a4576101008083540402835291602001916105cd565b820191905f5260205f20905b8154815290600101906020018083116105b057829003601f168201915b5050505050905090565b5f6105e182610ba1565b506105eb82610c27565b9050919050565b61060482826105ff610c60565b610c67565b5050565b5f73ffffffffffffffffffffffffffffffffffffffff168273ffffffffffffffffffffffffffffffffffffffff1603610678575f6040517f64a0ae9200000000000000000000000000000000000000000000000000000000815260040161066f9190611cc1565b60405180910390fd5b5f61068b8383610686610c60565b610c79565b90508373ffffffffffffffffffffffffffffffffffffffff168173ffffffffffffffffffffffffffffffffffffffff1614610701578382826040517f64283d7b0000000000000000000000000000000000000000000000000000000081526004016106f89392919061206c565b60405180910390fd5b50505050565b61070f610e84565b61071b81600754610f0b565b60075f81548092919061072d906120ce565b919050555050565b61074f83838360405180602001604052805f8152506109bb565b505050565b5f61075e82610ba1565b9050919050565b5f8073ffffffffffffffffffffffffffffffffffffffff168273ffffffffffffffffffffffffffffffffffffffff16036107d6575f6040517f89c62b640000000000000000000000000000000000000000000000000000000081526004016107cd9190611cc1565b60405180910390fd5b60035f8373ffffffffffffffffffffffffffffffffffffffff1673ffffffffffffffffffffffffffffffffffffffff1681526020019081526020015f20549050919050565b610823610e84565b61082c5f610f28565b565b5f60065f9054906101000a900473ffffffffffffffffffffffffffffffffffffffff16905090565b6060600180546108659061203c565b80601f01602080910402602001604051908101604052809291908181526020018280546108919061203c565b80156108dc5780601f106108b3576101008083540402835291602001916108dc565b820191905f5260205f20905b8154815290600101906020018083116108bf57829003601f168201915b5050505050905090565b6108f86108f1610c60565b8383610feb565b5050565b5f6305f5e10060075461090f9190612115565b9050803414610953576040517f08c379a000000000000000000000000000000000000000000000000000000000815260040161094a906121a0565b60405180910390fd5b61095f33600754610f0b565b6109a16040518060400160405280600881526020017f676f74206865726500000000000000000000000000000000000000000000000081525060075434611154565b60075f8154809291906109b3906120ce565b919050555050565b6109c6848484610608565b6109da6109d1610c60565b858585856111f3565b50505050565b60606109ea61139f565b6109ff6001846109fa91906121be565b6113bf565b604051602001610a10929190612275565b6040516020818303038152906040529050919050565b5f60055f8473ffffffffffffffffffffffffffffffffffffffff1673ffffffffffffffffffffffffffffffffffffffff1681526020019081526020015f205f8373ffffffffffffffffffffffffffffffffffffffff1673ffffffffffffffffffffffffffffffffffffffff1681526020019081526020015f205f9054906101000a900460ff16905092915050565b610abc610e84565b5f73ffffffffffffffffffffffffffffffffffffffff168173ffffffffffffffffffffffffffffffffffffffff1603610b2c575f6040517f1e4fbdf7000000000000000000000000000000000000000000000000000000008152600401610b239190611cc1565b60405180910390fd5b610b3581610f28565b50565b5f7f01ffc9a7000000000000000000000000000000000000000000000000000000007bffffffffffffffffffffffffffffffffffffffffffffffffffffffff1916827bffffffffffffffffffffffffffffffffffffffffffffffffffffffff1916149050919050565b5f80610bac83611489565b90505f73ffffffffffffffffffffffffffffffffffffffff168173ffffffffffffffffffffffffffffffffffffffff1603610c1e57826040517f7e273289000000000000000000000000000000000000000000000000000000008152600401610c159190611aa6565b60405180910390fd5b80915050919050565b5f60045f8381526020019081526020015f205f9054906101000a900473ffffffffffffffffffffffffffffffffffffffff169050919050565b5f33905090565b610c7483838360016114c2565b505050565b5f80610c8484611489565b90505f73ffffffffffffffffffffffffffffffffffffffff168373ffffffffffffffffffffffffffffffffffffffff1614610cc557610cc4818486611681565b5b5f73ffffffffffffffffffffffffffffffffffffffff168173ffffffffffffffffffffffffffffffffffffffff1614610d5057610d045f855f806114c2565b600160035f8373ffffffffffffffffffffffffffffffffffffffff1673ffffffffffffffffffffffffffffffffffffffff1681526020019081526020015f205f82825403925050819055505b5f73ffffffffffffffffffffffffffffffffffffffff168573ffffffffffffffffffffffffffffffffffffffff1614610dcf57600160035f8773ffffffffffffffffffffffffffffffffffffffff1673ffffffffffffffffffffffffffffffffffffffff1681526020019081526020015f205f82825401925050819055505b8460025f8681526020019081526020015f205f6101000a81548173ffffffffffffffffffffffffffffffffffffffff021916908373ffffffffffffffffffffffffffffffffffffffff160217905550838573ffffffffffffffffffffffffffffffffffffffff168273ffffffffffffffffffffffffffffffffffffffff167fddf252ad1be2c89b69c2b068fc378daa952ba7f163c4a11628f55a4df523b3ef60405160405180910390a4809150509392505050565b610e8c610c60565b73ffffffffffffffffffffffffffffffffffffffff16610eaa61082e565b73ffffffffffffffffffffffffffffffffffffffff1614610f0957610ecd610c60565b6040517f118cdaa7000000000000000000000000000000000000000000000000000000008152600401610f009190611cc1565b60405180910390fd5b565b610f24828260405180602001604052805f815250611744565b5050565b5f60065f9054906101000a900473ffffffffffffffffffffffffffffffffffffffff1690508160065f6101000a81548173ffffffffffffffffffffffffffffffffffffffff021916908373ffffffffffffffffffffffffffffffffffffffff1602179055508173ffffffffffffffffffffffffffffffffffffffff168173ffffffffffffffffffffffffffffffffffffffff167f8be0079c531659141344cd1fd0a4f28419497f9722a3daafe3b4186f6b6457e060405160405180910390a35050565b5f73ffffffffffffffffffffffffffffffffffffffff168273ffffffffffffffffffffffffffffffffffffffff160361105b57816040517f5b08ba180000000000000000000000000000000000000000000000000000000081526004016110529190611cc1565b60405180910390fd5b8060055f8573ffffffffffffffffffffffffffffffffffffffff1673ffffffffffffffffffffffffffffffffffffffff1681526020019081526020015f205f8473ffffffffffffffffffffffffffffffffffffffff1673ffffffffffffffffffffffffffffffffffffffff1681526020019081526020015f205f6101000a81548160ff0219169083151502179055508173ffffffffffffffffffffffffffffffffffffffff168373ffffffffffffffffffffffffffffffffffffffff167f17307eab39ab6107e8899845ad3d59bd9653f200f220920489ca2b5937696c31836040516111479190611b6a565b60405180910390a3505050565b6111ee83838360405160240161116c939291906122a3565b6040516020818303038152906040527fca47c4eb000000000000000000000000000000000000000000000000000000007bffffffffffffffffffffffffffffffffffffffffffffffffffffffff19166020820180517bffffffffffffffffffffffffffffffffffffffffffffffffffffffff8381831617835250505050611767565b505050565b5f8373ffffffffffffffffffffffffffffffffffffffff163b1115611398578273ffffffffffffffffffffffffffffffffffffffff1663150b7a02868685856040518563ffffffff1660e01b81526004016112519493929190612331565b6020604051808303815f875af192505050801561128c57506040513d601f19601f82011682018060405250810190611289919061238f565b60015b61130d573d805f81146112ba576040519150601f19603f3d011682016040523d82523d5f602084013e6112bf565b606091505b505f81510361130557836040517f64a0ae920000000000000000000000000000000000000000000000000000000081526004016112fc9190611cc1565b60405180910390fd5b805160208201fd5b63150b7a0260e01b7bffffffffffffffffffffffffffffffffffffffffffffffffffffffff1916817bffffffffffffffffffffffffffffffffffffffffffffffffffffffff19161461139657836040517f64a0ae9200000000000000000000000000000000000000000000000000000000815260040161138d9190611cc1565b60405180910390fd5b505b5050505050565b60606040518060800160405280604c815260200161240f604c9139905090565b60605f60016113cd8461178a565b0190505f8167ffffffffffffffff8111156113eb576113ea611e2d565b5b6040519080825280601f01601f19166020018201604052801561141d5781602001600182028036833780820191505090505b5090505f82602083010190505b60011561147e578080600190039150507f3031323334353637383961626364656600000000000000000000000000000000600a86061a8153600a8581611473576114726123ba565b5b0494505f850361142a575b819350505050919050565b5f60025f8381526020019081526020015f205f9054906101000a900473ffffffffffffffffffffffffffffffffffffffff169050919050565b80806114fa57505f73ffffffffffffffffffffffffffffffffffffffff168273ffffffffffffffffffffffffffffffffffffffff1614155b1561162c575f61150984610ba1565b90505f73ffffffffffffffffffffffffffffffffffffffff168373ffffffffffffffffffffffffffffffffffffffff161415801561157357508273ffffffffffffffffffffffffffffffffffffffff168173ffffffffffffffffffffffffffffffffffffffff1614155b801561158657506115848184610a26565b155b156115c857826040517fa9fbf51f0000000000000000000000000000000000000000000000000000000081526004016115bf9190611cc1565b60405180910390fd5b811561162a57838573ffffffffffffffffffffffffffffffffffffffff168273ffffffffffffffffffffffffffffffffffffffff167f8c5be1e5ebec7d5bd14f71427d1e84f3dd0314c0f7b2291e5b200ac8c7c3b92560405160405180910390a45b505b8360045f8581526020019081526020015f205f6101000a81548173ffffffffffffffffffffffffffffffffffffffff021916908373ffffffffffffffffffffffffffffffffffffffff16021790555050505050565b61168c8383836118db565b61173f575f73ffffffffffffffffffffffffffffffffffffffff168373ffffffffffffffffffffffffffffffffffffffff160361170057806040517f7e2732890000000000000000000000000000000000000000000000000000000081526004016116f79190611aa6565b60405180910390fd5b81816040517f177e802f0000000000000000000000000000000000000000000000000000000081526004016117369291906123e7565b60405180910390fd5b505050565b61174e838361199b565b611762611759610c60565b5f8585856111f3565b505050565b5f6a636f6e736f6c652e6c6f6790508151602083015f808383865afa5050505050565b5f805f90507a184f03e93ff9f4daa797ed6e38ed64bf6a1f01000000000000000083106117e6577a184f03e93ff9f4daa797ed6e38ed64bf6a1f01000000000000000083816117dc576117db6123ba565b5b0492506040810190505b6d04ee2d6d415b85acef81000000008310611823576d04ee2d6d415b85acef81000000008381611819576118186123ba565b5b0492506020810190505b662386f26fc10000831061185257662386f26fc100008381611848576118476123ba565b5b0492506010810190505b6305f5e100831061187b576305f5e1008381611871576118706123ba565b5b0492506008810190505b61271083106118a0576127108381611896576118956123ba565b5b0492506004810190505b606483106118c357606483816118b9576118b86123ba565b5b0492506002810190505b600a83106118d2576001810190505b80915050919050565b5f8073ffffffffffffffffffffffffffffffffffffffff168373ffffffffffffffffffffffffffffffffffffffff161415801561199257508273ffffffffffffffffffffffffffffffffffffffff168473ffffffffffffffffffffffffffffffffffffffff16148061195357506119528484610a26565b5b8061199157508273ffffffffffffffffffffffffffffffffffffffff1661197983610c27565b73ffffffffffffffffffffffffffffffffffffffff16145b5b90509392505050565b5f73ffffffffffffffffffffffffffffffffffffffff168273ffffffffffffffffffffffffffffffffffffffff1603611a0b575f6040517f64a0ae92000000000000000000000000000000000000000000000000000000008152600401611a029190611cc1565b60405180910390fd5b5f611a1783835f610c79565b90505f73ffffffffffffffffffffffffffffffffffffffff168173ffffffffffffffffffffffffffffffffffffffff1614611a89575f6040517f73c6ac6e000000000000000000000000000000000000000000000000000000008152600401611a809190611cc1565b60405180910390fd5b505050565b5f819050919050565b611aa081611a8e565b82525050565b5f602082019050611ab95f830184611a97565b92915050565b5f604051905090565b5f80fd5b5f80fd5b5f7fffffffff0000000000000000000000000000000000000000000000000000000082169050919050565b611b0481611ad0565b8114611b0e575f80fd5b50565b5f81359050611b1f81611afb565b92915050565b5f60208284031215611b3a57611b39611ac8565b5b5f611b4784828501611b11565b91505092915050565b5f8115159050919050565b611b6481611b50565b82525050565b5f602082019050611b7d5f830184611b5b565b92915050565b5f81519050919050565b5f82825260208201905092915050565b5f5b83811015611bba578082015181840152602081019050611b9f565b5f8484015250505050565b5f601f19601f8301169050919050565b5f611bdf82611b83565b611be98185611b8d565b9350611bf9818560208601611b9d565b611c0281611bc5565b840191505092915050565b5f6020820190508181035f830152611c258184611bd5565b905092915050565b611c3681611a8e565b8114611c40575f80fd5b50565b5f81359050611c5181611c2d565b92915050565b5f60208284031215611c6c57611c6b611ac8565b5b5f611c7984828501611c43565b91505092915050565b5f73ffffffffffffffffffffffffffffffffffffffff82169050919050565b5f611cab82611c82565b9050919050565b611cbb81611ca1565b82525050565b5f602082019050611cd45f830184611cb2565b92915050565b611ce381611ca1565b8114611ced575f80fd5b50565b5f81359050611cfe81611cda565b92915050565b5f8060408385031215611d1a57611d19611ac8565b5b5f611d2785828601611cf0565b9250506020611d3885828601611c43565b9150509250929050565b5f805f60608486031215611d5957611d58611ac8565b5b5f611d6686828701611cf0565b9350506020611d7786828701611cf0565b9250506040611d8886828701611c43565b9150509250925092565b5f60208284031215611da757611da6611ac8565b5b5f611db484828501611cf0565b91505092915050565b611dc681611b50565b8114611dd0575f80fd5b50565b5f81359050611de181611dbd565b92915050565b5f8060408385031215611dfd57611dfc611ac8565b5b5f611e0a85828601611cf0565b9250506020611e1b85828601611dd3565b9150509250929050565b5f80fd5b5f80fd5b7f4e487b71000000000000000000000000000000000000000000000000000000005f52604160045260245ffd5b611e6382611bc5565b810181811067ffffffffffffffff82111715611e8257611e81611e2d565b5b80604052505050565b5f611e94611abf565b9050611ea08282611e5a565b919050565b5f67ffffffffffffffff821115611ebf57611ebe611e2d565b5b611ec882611bc5565b9050602081019050919050565b828183375f83830152505050565b5f611ef5611ef084611ea5565b611e8b565b905082815260208101848484011115611f1157611f10611e29565b5b611f1c848285611ed5565b509392505050565b5f82601f830112611f3857611f37611e25565b5b8135611f48848260208601611ee3565b91505092915050565b5f805f8060808587031215611f6957611f68611ac8565b5b5f611f7687828801611cf0565b9450506020611f8787828801611cf0565b9350506040611f9887828801611c43565b925050606085013567ffffffffffffffff811115611fb957611fb8611acc565b5b611fc587828801611f24565b91505092959194509250565b5f8060408385031215611fe757611fe6611ac8565b5b5f611ff485828601611cf0565b925050602061200585828601611cf0565b9150509250929050565b7f4e487b71000000000000000000000000000000000000000000000000000000005f52602260045260245ffd5b5f600282049050600182168061205357607f821691505b6020821081036120665761206561200f565b5b50919050565b5f60608201905061207f5f830186611cb2565b61208c6020830185611a97565b6120996040830184611cb2565b949350505050565b7f4e487b71000000000000000000000000000000000000000000000000000000005f52601160045260245ffd5b5f6120d882611a8e565b91507fffffffffffffffffffffffffffffffffffffffffffffffffffffffffffffffff820361210a576121096120a1565b5b600182019050919050565b5f61211f82611a8e565b915061212a83611a8e565b925082820261213881611a8e565b9150828204841483151761214f5761214e6120a1565b5b5092915050565b7f77726f6e6720616d6f756e74206f662066756e64732073656e740000000000005f82015250565b5f61218a601a83611b8d565b915061219582612156565b602082019050919050565b5f6020820190508181035f8301526121b78161217e565b9050919050565b5f6121c882611a8e565b91506121d383611a8e565b92508282019050808211156121eb576121ea6120a1565b5b92915050565b5f81905092915050565b5f61220582611b83565b61220f81856121f1565b935061221f818560208601611b9d565b80840191505092915050565b7f2e6a736f6e0000000000000000000000000000000000000000000000000000005f82015250565b5f61225f6005836121f1565b915061226a8261222b565b600582019050919050565b5f61228082856121fb565b915061228c82846121fb565b915061229782612253565b91508190509392505050565b5f6060820190508181035f8301526122bb8186611bd5565b90506122ca6020830185611a97565b6122d76040830184611a97565b949350505050565b5f81519050919050565b5f82825260208201905092915050565b5f612303826122df565b61230d81856122e9565b935061231d818560208601611b9d565b61232681611bc5565b840191505092915050565b5f6080820190506123445f830187611cb2565b6123516020830186611cb2565b61235e6040830185611a97565b818103606083015261237081846122f9565b905095945050505050565b5f8151905061238981611afb565b92915050565b5f602082840312156123a4576123a3611ac8565b5b5f6123b18482850161237b565b91505092915050565b7f4e487b71000000000000000000000000000000000000000000000000000000005f52601260045260245ffd5b5f6040820190506123fa5f830185611cb2565b6124076020830184611a97565b939250505056fe68747470733a2f2f697066732e696f2f697066732f516d5531434e75774a5a54786336465a714b4c735550566a50725231466732553739734e4459516f7a70426a37772f67656e657369732fa264697066735822122048adc596e18eee71668d50eaff768e48e8861288b8e24ed4321fce1f9dc5c51164736f6c63430008150033",
  "immutableReferences": {},
  "source": "// SPDX-License-Identifier: MIT\npragma solidity ^0.8.21;\n\nimport \"@openzeppelin/contracts/token/ERC721/ERC721.sol\";\nimport \"@openzeppelin/contracts/access/Ownable.sol\";\nimport \"@ganache/console.log/console.sol\"; \n\ncontract ThekkanCoin is ERC721, Ownable {\n    uint256 private _tokenId;\n    constructor() ERC721(\"ThekkanCoin\", \"TKC\") Ownable(msg.sender) {}\n    \n    function _baseURI() internal pure override returns (string memory) {\n        return \"https://ipfs.io/ipfs/QmU1CNuwJZTxc6FZqKLsUPVjPrR1Fg2U79sNDYQozpBj7w/genesis/\";\n    }\n\n    function buyToken()public payable{\n        uint256 price=_tokenId*0.1 gwei;\n        require(msg.value ==price,\"wrong amount of funds sent\");\n        _safeMint(msg.sender,_tokenId);\n        console.log(\"got here\",_tokenId,msg.value);\n        _tokenId++;\n    }\n\n    function currentTokenId() public view returns (uint256) {\n    return _tokenId;\n}\n\n\n    function safeMint(address to) public onlyOwner {\n        _safeMint(to, _tokenId);\n        _tokenId++;\n    }\n\n    function tokenURI(uint256 tokenId) public pure override returns (string memory) {\n        return string(abi.encodePacked(_baseURI(), Strings.toString(tokenId + 1), \".json\"));\n    }\n\n}\n",
  "sourcePath": "/nft-project/truffle/contracts/ThekkanCoin.sol",
  "compiler": {
    "name": "solc",
    "version": "0.8.21+commit.d9974bed.Emscripten.clang"
  },
  "schemaVersion": "3.4.16",
  "updatedAt": "2025-07-24T17:51:29.607Z",
  "networkType": "ethereum",
  "devdoc": {
    "errors": {
      "ERC721IncorrectOwner(address,uint256,address)": [
        {
          "details": "Indicates an error related to the ownership over a particular token. Used in transfers.",
          "params": {
            "owner": "Address of the current owner of a token.",
            "sender": "Address whose tokens are being transferred.",
            "tokenId": "Identifier number of a token."
          }
        }
      ],
      "ERC721InsufficientApproval(address,uint256)": [
        {
          "details": "Indicates a failure with the `operator`s approval. Used in transfers.",
          "params": {
            "operator": "Address that may be allowed to operate on tokens without being their owner.",
            "tokenId": "Identifier number of a token."
          }
        }
      ],
      "ERC721InvalidApprover(address)": [
        {
          "details": "Indicates a failure with the `approver` of a token to be approved. Used in approvals.",
          "params": {
            "approver": "Address initiating an approval operation."
          }
        }
      ],
      "ERC721InvalidOperator(address)": [
        {
          "details": "Indicates a failure with the `operator` to be approved. Used in approvals.",
          "params": {
            "operator": "Address that may be allowed to operate on tokens without being their owner."
          }
        }
      ],
      "ERC721InvalidOwner(address)": [
        {
          "details": "Indicates that an address can't be an owner. For example, `address(0)` is a forbidden owner in ERC-20. Used in balance queries.",
          "params": {
            "owner": "Address of the current owner of a token."
          }
        }
      ],
      "ERC721InvalidReceiver(address)": [
        {
          "details": "Indicates a failure with the token `receiver`. Used in transfers.",
          "params": {
            "receiver": "Address to which tokens are being transferred."
          }
        }
      ],
      "ERC721InvalidSender(address)": [
        {
          "details": "Indicates a failure with the token `sender`. Used in transfers.",
          "params": {
            "sender": "Address whose tokens are being transferred."
          }
        }
      ],
      "ERC721NonexistentToken(uint256)": [
        {
          "details": "Indicates a `tokenId` whose `owner` is the zero address.",
          "params": {
            "tokenId": "Identifier number of a token."
          }
        }
      ],
      "OwnableInvalidOwner(address)": [
        {
          "details": "The owner is not a valid owner account. (eg. `address(0)`)"
        }
      ],
      "OwnableUnauthorizedAccount(address)": [
        {
          "details": "The caller account is not authorized to perform an operation."
        }
      ]
    },
    "events": {
      "Approval(address,address,uint256)": {
        "details": "Emitted when `owner` enables `approved` to manage the `tokenId` token."
      },
      "ApprovalForAll(address,address,bool)": {
        "details": "Emitted when `owner` enables or disables (`approved`) `operator` to manage all of its assets."
      },
      "Transfer(address,address,uint256)": {
        "details": "Emitted when `tokenId` token is transferred from `from` to `to`."
      }
    },
    "kind": "dev",
    "methods": {
      "approve(address,uint256)": {
        "details": "Gives permission to `to` to transfer `tokenId` token to another account. The approval is cleared when the token is transferred. Only a single account can be approved at a time, so approving the zero address clears previous approvals. Requirements: - The caller must own the token or be an approved operator. - `tokenId` must exist. Emits an {Approval} event."
      },
      "balanceOf(address)": {
        "details": "Returns the number of tokens in ``owner``'s account."
      },
      "getApproved(uint256)": {
        "details": "Returns the account approved for `tokenId` token. Requirements: - `tokenId` must exist."
      },
      "isApprovedForAll(address,address)": {
        "details": "Returns if the `operator` is allowed to manage all of the assets of `owner`. See {setApprovalForAll}"
      },
      "name()": {
        "details": "Returns the token collection name."
      },
      "owner()": {
        "details": "Returns the address of the current owner."
      },
      "ownerOf(uint256)": {
        "details": "Returns the owner of the `tokenId` token. Requirements: - `tokenId` must exist."
      },
      "renounceOwnership()": {
        "details": "Leaves the contract without owner. It will not be possible to call `onlyOwner` functions. Can only be called by the current owner. NOTE: Renouncing ownership will leave the contract without an owner, thereby disabling any functionality that is only available to the owner."
      },
      "safeTransferFrom(address,address,uint256)": {
        "details": "Safely transfers `tokenId` token from `from` to `to`, checking first that contract recipients are aware of the ERC-721 protocol to prevent tokens from being forever locked. Requirements: - `from` cannot be the zero address. - `to` cannot be the zero address. - `tokenId` token must exist and be owned by `from`. - If the caller is not `from`, it must have been allowed to move this token by either {approve} or   {setApprovalForAll}. - If `to` refers to a smart contract, it must implement {IERC721Receiver-onERC721Received}, which is called upon   a safe transfer. Emits a {Transfer} event."
      },
      "safeTransferFrom(address,address,uint256,bytes)": {
        "details": "Safely transfers `tokenId` token from `from` to `to`. Requirements: - `from` cannot be the zero address. - `to` cannot be the zero address. - `tokenId` token must exist and be owned by `from`. - If the caller is not `from`, it must be approved to move this token by either {approve} or {setApprovalForAll}. - If `to` refers to a smart contract, it must implement {IERC721Receiver-onERC721Received}, which is called upon   a safe transfer. Emits a {Transfer} event."
      },
      "setApprovalForAll(address,bool)": {
        "details": "Approve or remove `operator` as an operator for the caller. Operators can call {transferFrom} or {safeTransferFrom} for any token owned by the caller. Requirements: - The `operator` cannot be the address zero. Emits an {ApprovalForAll} event."
      },
      "supportsInterface(bytes4)": {
        "details": "Returns true if this contract implements the interface defined by `interfaceId`. See the corresponding https://eips.ethereum.org/EIPS/eip-165#how-interfaces-are-identified[ERC section] to learn more about how these ids are created. This function call must use less than 30 000 gas."
      },
      "symbol()": {
        "details": "Returns the token collection symbol."
      },
      "tokenURI(uint256)": {
        "details": "Returns the Uniform Resource Identifier (URI) for `tokenId` token."
      },
      "transferFrom(address,address,uint256)": {
        "details": "Transfers `tokenId` token from `from` to `to`. WARNING: Note that the caller is responsible to confirm that the recipient is capable of receiving ERC-721 or else they may be permanently lost. Usage of {safeTransferFrom} prevents loss, though the caller must understand this adds an external call which potentially creates a reentrancy vulnerability. Requirements: - `from` cannot be the zero address. - `to` cannot be the zero address. - `tokenId` token must be owned by `from`. - If the caller is not `from`, it must be approved to move this token by either {approve} or {setApprovalForAll}. Emits a {Transfer} event."
      },
      "transferOwnership(address)": {
        "details": "Transfers ownership of the contract to a new account (`newOwner`). Can only be called by the current owner."
      }
    },
    "version": 1
  },
  "userdoc": {
    "kind": "user",
    "methods": {},
    "version": 1
  }
}